{
  "contractName": "Payment",
  "abi": [
    {
      "inputs": [],
      "stateMutability": "nonpayable",
      "type": "constructor"
    },
    {
      "anonymous": false,
      "inputs": [
        {
          "indexed": false,
          "internalType": "string",
          "name": "description",
          "type": "string"
        }
      ],
      "name": "LogNewPayment",
      "type": "event"
    },
    {
      "inputs": [],
      "name": "makePayment",
      "outputs": [],
      "stateMutability": "payable",
      "type": "function",
      "payable": true
    },
    {
      "inputs": [],
      "name": "refundPayment",
      "outputs": [],
      "stateMutability": "nonpayable",
      "type": "function"
    },
    {
      "inputs": [],
      "name": "getPaymentStatus",
      "outputs": [
        {
          "internalType": "string",
          "name": "",
          "type": "string"
        }
      ],
      "stateMutability": "view",
      "type": "function",
      "constant": true
    }
  ],
  "bytecode": "0x608060405234801561001057600080fd5b5060008060006101000a81548160ff0219169083600281111561003657610035610040565b5b021790555061006f565b7f4e487b7100000000000000000000000000000000000000000000000000000000600052602160045260246000fd5b6106ac8061007e6000396000f3fe6080604052600436106100345760003560e01c8063b65412b514610039578063c6ccdc0914610050578063d8d797001461007b575b600080fd5b34801561004557600080fd5b5061004e610085565b005b34801561005c57600080fd5b506100656101a1565b6040516100729190610475565b60405180910390f35b6100836101c5565b005b6001600281111561009957610098610497565b5b60008054906101000a900460ff1660028111156100b9576100b8610497565b5b146100f9576040517f08c379a00000000000000000000000000000000000000000000000000000000081526004016100f090610512565b60405180910390fd5b60026000806101000a81548160ff0219169083600281111561011e5761011d610497565b5b02179055503373ffffffffffffffffffffffffffffffffffffffff166108fc479081150290604051600060405180830381858888f19350505050158015610169573d6000803e3d6000fd5b507f9a8d84f3f45bbe76804e5221ba3270b4e2998afb63547160bdf071e39cf45e486040516101979061057e565b60405180910390a1565b606060008060009054906101000a900460ff1690506101bf8161029a565b91505090565b600060028111156101d9576101d8610497565b5b60008054906101000a900460ff1660028111156101f9576101f8610497565b5b14610239576040517f08c379a0000000000000000000000000000000000000000000000000000000008152600401610230906105ea565b60405180910390fd5b60016000806101000a81548160ff0219169083600281111561025e5761025d610497565b5b02179055507f9a8d84f3f45bbe76804e5221ba3270b4e2998afb63547160bdf071e39cf45e4860405161029090610656565b60405180910390a1565b60608160028111156102af576102ae610497565b5b600060028111156102c3576102c2610497565b5b03610305576040518060400160405280600781526020017f50656e64696e670000000000000000000000000000000000000000000000000081525090506103d7565b81600281111561031857610317610497565b5b6001600281111561032c5761032b610497565b5b0361036e576040518060400160405280600481526020017f506169640000000000000000000000000000000000000000000000000000000081525090506103d7565b81600281111561038157610380610497565b5b60028081111561039457610393610497565b5b036103d6576040518060400160405280600881526020017f526566756e64656400000000000000000000000000000000000000000000000081525090506103d7565b5b919050565b600081519050919050565b600082825260208201905092915050565b60005b838110156104165780820151818401526020810190506103fb565b83811115610425576000848401525b50505050565b6000601f19601f8301169050919050565b6000610447826103dc565b61045181856103e7565b93506104618185602086016103f8565b61046a8161042b565b840191505092915050565b6000602082019050818103600083015261048f818461043c565b905092915050565b7f4e487b7100000000000000000000000000000000000000000000000000000000600052602160045260246000fd5b7f5061796d656e7420686173206e6f74206265656e206d61646520796574000000600082015250565b60006104fc601d836103e7565b9150610507826104c6565b602082019050919050565b6000602082019050818103600083015261052b816104ef565b9050919050565b7f5061796d656e7420686173206265656e20726566756e64656400000000000000600082015250565b60006105686019836103e7565b915061057382610532565b602082019050919050565b600060208201905081810360008301526105978161055b565b9050919050565b7f5061796d656e742068617320616c7265616479206265656e206d616465000000600082015250565b60006105d4601d836103e7565b91506105df8261059e565b602082019050919050565b60006020820190508181036000830152610603816105c7565b9050919050565b7f5061796d656e7420686173206265656e206d6164650000000000000000000000600082015250565b60006106406015836103e7565b915061064b8261060a565b602082019050919050565b6000602082019050818103600083015261066f81610633565b905091905056fea26469706673582212208d5dcb35fc046afa61f67ba7752d77ec9a523776bd1e7307839ddd9f152cf1d064736f6c634300080d0033",
  "immutableReferences": {},
  "source": "pragma solidity >=0.4.25 <0.9.0;\r\n\r\ncontract Payment {\r\n    enum PaymentStatus { Pending, Paid, Refunded }\r\n\r\n    PaymentStatus private status;\r\n\r\n    event LogNewPayment(string description);\r\n\r\n    constructor() public {\r\n        status = PaymentStatus.Pending;\r\n    }\r\n\r\n    // Function to make payment\r\n    function makePayment() public payable {\r\n        require(status == PaymentStatus.Pending, \"Payment has already been made\");\r\n        status = PaymentStatus.Paid;\r\n        emit LogNewPayment(\"Payment has been made\");\r\n    }\r\n\r\n    // Function to refund payment\r\n    function refundPayment() public {\r\n        require(status == PaymentStatus.Paid, \"Payment has not been made yet\");\r\n        status = PaymentStatus.Refunded;\r\n        payable(msg.sender).transfer(address(this).balance);\r\n        emit LogNewPayment(\"Payment has been refunded\");\r\n    }\r\n\r\n    function getStatus(PaymentStatus _status) internal pure returns (string memory) {\r\n     if (PaymentStatus.Pending == _status) return \"Pending\";\r\n     if (PaymentStatus.Paid == _status) return \"Paid\";\r\n     if (PaymentStatus.Refunded == _status) return \"Refunded\";\r\n    }\r\n\r\n    function getPaymentStatus() public view returns (string memory) {\r\n         PaymentStatus _status = status;\r\n         return getStatus(_status);\r\n    }\r\n}",
  "sourcePath": "c:\\Users\\Kirill\\newSolidityProject\\contracts\\Payment.sol",
  "compiler": {
    "name": "solc",
    "version": "0.8.13+commit.abaa5c0e.Emscripten.clang"
  },
  "schemaVersion": "3.4.13",
  "updatedAt": "2023-03-25T14:27:49.506Z",
  "networkType": "ethereum",
  "devdoc": {
    "kind": "dev",
    "methods": {},
    "version": 1
  },
  "userdoc": {
    "kind": "user",
    "methods": {},
    "version": 1
  }
}